:100000000C9465000C948D000C948D000C948D0064
:100010000C948D000C948D000C948D000C948D002C
:100020000C948D000C948D000C948D000C948D001C
:100030000C948D000C948D000C948D000C948D000C
:100040000C94A1170C948D000C94891A0C94BB1A73
:100050000C948D000C948D000C948D000C948D00EC
:100060000C948D000C948D0000000008000201002B
:100070000003040700000000000000000102040863
:100080001020408001020408102001020408102002
:10009000040404040404040402020202020203032E
:1000A0000303030300000000250028002B000000CC
:1000B0000000240027002A00B701B003B108A40CF7
:1000C000850E900EF010EB1A991B11241FBECFEF76
:1000D000D8E0DEBFCDBF15E0A0E0B1E0E6ECF4E48F
:1000E00002C005900D92A238B107D9F726E0A2E828
:1000F000B5E001C01D92A83FB207E1F710E0CAECDD
:10010000D0E004C02297FE010E94BD20C83BD10769
:10011000C9F70E942B1E0C9461220C940000BC01B4
:1001200081E596E00C94E61BCF92DF92EF92FF926E
:10013000C0908E05D0908F05E0909005F0909105CD
:1001400020918A0530918B0540918C0550918D0549
:10015000C701B6010E94EE1F181644F4C0928A052A
:10016000D0928B05E0928C05F0928D05FF90EF9078
:10017000DF90CF900895CF92DF92EF92FF926BE2E3
:1001800071E081E596E00E94FD1B8EE00E948F18D1
:10019000BC01882777FD8095982F0E943E1F20E0A4
:1001A00030E040EA5BE30E94F21F6B017C012DEC22
:1001B0003CEC4CEC5EE30E949F1E18164CF0109233
:1001C0008E0510928F0510929005109291051CC01B
:1001D0002DEC3CEC4CEC5EE3C701B6010E943A1EEC
:1001E00020E030E040E052E40E94F21F2DEC3CECB5
:1001F0004CEC5FE30E94A31E60938E0570938F0505
:10020000809390059093910585E491E00E948F0082
:1002100022E030E0B701A60181E596E00E94D11D01
:100220008FE491E00E948F0081E591E00E948F00B1
:1002300040918E0550918F056091900570919105C8
:1002400022E030E081E596E00E94D31D0E949400F8
:100250000E94EB1760938205709383058093840559
:1002600090938505FF90EF90DF90CF900895CF9306
:10027000DF93EC01E881F9810480F581E02DCE0166
:100280000995892B99F0E881F9810680F781E02DA5
:10029000CE010995E0915106F09152060190F0814E
:1002A000E02D682F81E596E00995E4CFDF91CF91AD
:1002B000089586E090E00E94C120FC018EED8083CD
:1002C0008DEA81838EEB82838FEE83838EEF84832E
:1002D0008DEE8583CF010895CF93DF9300D000D0BA
:1002E00000D0CDB7DEB783E691E00E948F008DE9A4
:1002F00091E00E948F0062E076E0CE0101960E94BC
:100300004C0CBE016F5F7F4F81E596E00E940F1C91
:100310008AEA91E00E948F0062E076E0CE010196C9
:100320000E94640CBE016F5F7F4F81E596E00E94E2
:100330000F1C88EB91E00E948F0062E076E0CE0116
:1003400001960E947C0CBE016F5F7F4F81E596E0B5
:100350000E940F1C8AEC91E00E948F0026960FB637
:10036000F894DEBF0FBECDBFDF91CF9108950F93FC
:1003700000E020E040E060E082E995E00E94721B2E
:100380000F910895CF93DF93CDB7DEB72D970FB6BA
:10039000F894DEBF0FBECDBFCE0101960E94B00D16
:1003A00083E092E00E948F0040E550E063E171E05D
:1003B000CE0101960E94520D892B49F08AE192E00C
:1003C0000E948F00CE0101960E94270E04C088E192
:1003D00092E00E948F002D960FB6F894DEBF0FBEFC
:1003E000CDBFDF91CF910895EF92FF920F931F93AE
:1003F000CF93DF9326E040E855E260E070E081E5CE
:1004000096E00E94271A85E292E00E948F000E94E7
:100410005901EC0184E592E00E948F0010EAE12E80
:100420001FE0F12E00E010E020E63AEE40E050E060
:10043000BE0182E096E00E94A30B892B09F45EC006
:1004400068EE73E080E090E00E941A1887E792E07F
:100450000E948F0082EB92E00E948F008DEC92E070
:100460000E948F004AE050E06EE070E081E596E087
:100470000E94BA1C89EE92E00E948F0022E030E0D8
:100480004DEC5CEC6CEC7EE381E596E00E94D31DC4
:100490008CE093E00E948F0022E030E040E050E0EA
:1004A00060E070E481E596E00E94D31D8FE293E066
:1004B0000E948F0022E030E040E050E060E072E413
:1004C00081E596E00E94D31D86E593E00E948F00AF
:1004D0000E946C018BE893E00E948F0083E191E021
:1004E0000E948F000E94C2018EE993E0DF91CF91BC
:1004F0001F910F91FF90EF900C948F00CE010E94FE
:10050000592189ED93E081CFCF93DF93CDB7DEB74B
:100510002D970FB6F894DEBF0FBECDBF86E094E0F6
:100520000E948F00CE0101960E94B00D40E550E080
:1005300063E171E0CE0101960E94520D892B09F40E
:1005400088C06AE374E081E596E00E94FD1B68E4E0
:1005500074E0CE0101960E94E61B40918E055091F9
:100560008F05609190057091910522E030E0CE01F9
:1005700001960E94D11D64E674E0CE0101960E94AE
:10058000E61B40918A0550918B0560918C05709116
:100590008D0522E030E0CE0101960E94D11D6EE66D
:1005A00074E0CE0101960E94FD1B68E774E0CE0165
:1005B00001960E94E61B63E171E0CE0101960E9464
:1005C000FD1B6FE774E0CE0101960E94FD1B62EAFD
:1005D00074E0CE0101960E94FD1BCE0101960E949F
:1005E000F91B84EB94E00E948F00CE0101960E94DB
:1005F000040D892BF9F083ED94E00E948F00CE0169
:1006000001960E9437010E94EB1760938605709354
:10061000870580938805909389058CED94E00E946E
:100620008F0010928A0510928B0510928C05109203
:100630008D0506C0CE0101960E94040D892BA9F2FA
:10064000CE0101960E944E0DCE0101960E94270E0A
:1006500004C088EF94E00E948F002D960FB6F894A6
:10066000DEBF0FBECDBFDF91CF9108950F931F93D3
:100670000E94EB170091820510918305209184055B
:1006800030918505601B710B820B930B61377741AD
:100690008105910510F00E94BB000E94EB170091AC
:1006A0008605109187052091880530918905601B8A
:1006B000710B820B930B61327E448105910520F012
:1006C0001F910F910C9484021F910F9108950E9623
:1006D00024E1FC0111922A95E9F70895CF93DF9365
:1006E000EC01625F7F4F0E947E1BCE01DF91CF91B4
:1006F0000895CF93DF93EC016E5E7F4F0E947E1BC7
:10070000CE01DF91CF910895CF93DF93EC016A5E24
:100710007F4F0E947E1BCE01DF91CF910895CF9332
:10072000DF93EC01625E7F4F0E947E1BCE01DF9162
:10073000CF91089580E3FB0180833296842F8295C8
:100740008F7090E1899F401911244A3014F4405D64
:1007500001C0495C4293882311F0482FEFCF0895E0
:100760000F9300E020E040E060E088E995E00E941F
:10077000721B0F9108956F927F928F929F92AF920A
:10078000BF92CF92DF92EF92FF920F931F93CF937E
:10079000DF93CDB7DEB7AC970FB6F894DEBF0FBED0
:1007A000CDBF7C01862EB42EA52E20E2922ECE0146
:1007B00001966C01FC01292D11922A95E9F70FEFA2
:1007C0002FEF4FEF6FEF86960E94721B80E795E048
:1007D0009AA389A389A59AA5ABA5BCA58BA39CA325
:1007E000ADA3BEA387010D5B1F4F43E450E0BE01E4
:1007F0006F5D7F4FC8010E94E60E019609F4BFC0ED
:1008000081E089838A8386E0782E7B821C82F701CF
:1008100064817581868197810E949A206D837E8391
:100820008F839887A986BA8680E890E09C878B871B
:100830004CE150E0B601C8010E94F20EF601292DEC
:1008400011922A95E9F7570188E0A80EB11CF5012D
:10085000D60101900D927A94E1F740E150E0B601A3
:10086000C8010E94F20EF60111929A94E9F796E0FF
:10087000692E712C40E250E0B601C8010E94F20ED0
:10088000F1E06F1A7108B1F783E6898392E89A83E1
:1008900093E59B838C8385E38D8381E08E838F82B8
:1008A0009DE3988797E099878A8786E0F501DE01C6
:1008B0001B9601900D928A95E1F78CE0898B8A8BCB
:1008C0006BE075E0CE0143960E945222F70143850A
:1008D000BE01675E7F4FC7010E949A03F7014485FE
:1008E000BE01655E7F4FC7010E949A03F7014585EF
:1008F000BE01635E7F4FC7010E949A034EE150E044
:10090000B601C8010E94F20EF3E08F121EC082E30E
:10091000898384E08A83F70196859B8397859C83EE
:1009200090899D8391899E8396E39F838887828D9A
:100930008987838D8A87848D8B87858D8C874CE012
:1009400050E0B601C8010E94F20E87E3898386E079
:100950008A8391E09B8393E09C838D838FE08E83D9
:100960008AE38F838BE388878FEF898749E050E0A4
:10097000B601C8010E94F20EC8010E94EE0EAC96AC
:100980000FB6F894DEBF0FBECDBFDF91CF911F91A0
:100990000F91FF90EF90DF90CF90BF90AF909F901E
:1009A0008F907F906F9008952F923F924F925F9219
:1009B0006F927F928F929F92AF92BF92CF92DF926F
:1009C000EF92FF920F931F93CF93DF93CDB7DEB7D4
:1009D000E3970FB6F894DEBF0FBECDBF7C012A01AE
:1009E0003B0169010E94EB174B015C0187010D5B24
:1009F0001F4FC8010E94920F1816190694F00E940A
:100A0000EB17681979098A099B0946165706680683
:100A10007906F0F062E370E080E090E00E941A183E
:100A2000E8CF42E250E0BE016F5F7F4FC8010E94F5
:100A30002F0F8981823031F4F801848995898334BC
:100A4000910541F019A6C8010E94D00E89A566C182
:100A50008FEF64C16D817E818F8198850E949A207D
:100A60004B015C01F601608371838283938346E0CE
:100A700050E0B701685F7F4FCE014D960E9445223E
:100A8000892B99F4F70180819181A281B381881625
:100A90009906AA06BB0648F084819581A681B78194
:100AA00088159905AA05BB0528F4C8010E94D00E37
:100AB00080E034C189899A89AB89BC89F70186872E
:100AC0009787A08BB18B3EECC32ED12CC8010E941E
:100AD000060FF1E0CF1AD108C9F719A6C70182960F
:100AE0009BA78AA7F701B696FDA7ECA708969FA734
:100AF0008EA73C976F01899699AB88AB3897FBAB73
:100B0000EAAB5701F6E1AF0EB11C47018EE1880E4A
:100B1000911CC8010E94B60E181619060CF093CF4E
:100B2000C8010E94060F8333910509F4CDC0F4F487
:100B300081309105B9F11CF4892B59F3DFC0833062
:100B40009105C1F1069709F0D9C0C8010E94060FAE
:100B50003C0144E050E0B401C8010E942F0F212C59
:100B6000312C7724F4E06F1A71083FC08A33910565
:100B700009F47EC03CF48533910561F0C69709F411
:100B80003FC0BCC08B33910509F488C08F3F9105ED
:100B900001F2B4C0C8010E94060FC8010E94060FEE
:100BA00089A7B7CFC8010E94060F44E050E06AA9A8
:100BB0007BA93AC0C8010E94060F3C0144E050E006
:100BC000B501C8010E942F0F212C312C772494E00D
:100BD000691A7108261437040CF09BCFC8010E94D3
:100BE000060FEFEF2E1A3E0AF5CF261437040CF04D
:100BF00090CFC8010E94060F8FEF281A380AF5CF50
:100C0000C8010E94060F782EF701828D811110C055
:100C1000838D81110DC0848D81110AC0858D811154
:100C200007C044E050E0B601C8010E942F0F71CF09
:100C3000E8A9F9A92080318042805380B601CE0115
:100C400083960E947E1B8DA19EA1AFA1B8A582159F
:100C50009305A405B50529F3212C312C721409F450
:100C600058CFC8010E94060FFFEF2F1A3F0AF6CF98
:100C7000C8010E94060F44E050E06CA57DA5C801A4
:100C80000E942F0FF70166A177A180A591A50E9470
:100C90009A2066A377A380A791A73BCFC8010E94A3
:100CA000060F44E050E06EA57FA5C8010E942F0FFB
:100CB000F70162A573A584A595A50E949A2062A755
:100CC00073A784A795A725CFC8010E94060F44E00B
:100CD00050E06AA57BA5C8010E942F0FF70162A111
:100CE00073A184A195A10E949A2062A373A384A3F7
:100CF00095A366A777A780AB91AB0BCFC8010E94E5
:100D0000060F382E612C712C361409F402CFC8015D
:100D10000E94060FFFEF6F1A7F0AF6CFE3960FB619
:100D2000F894DEBF0FBECDBFDF91CF911F910F9121
:100D3000FF90EF90DF90CF90BF90AF909F908F90FB
:100D40007F906F905F904F903F902F9008952F92DB
:100D50003F924F925F926F927F928F929F92AF924B
:100D6000BF92CF92DF92EF92FF920F931F93CF9398
:100D7000DF9300D000D01F92CDB7DEB78C0120EDFD
:100D800037E040E050E061E070E080E090E00E94F9
:100D9000091ED80114966D937D938D939C9317979C
:100DA000F80160837183828393834801F3E48F0E9B
:100DB000911CC4010E94D10E64E470E0C4010E9441
:100DC000650F882309F434C10E94EB176B017C0185
:100DD000212C312C1D82580182E4A80EB11C48EE52
:100DE000442E43E0542E612C712CF5018081833018
:100DF00009F405C181111FC0F80184819581A68184
:100E0000B7810196A11DB11D84839583A683B78305
:100E10000E94EB176C197D098E099F09A3019201AD
:100E20000E945920A90161E0C8010E94BB0381E032
:100E3000D5018C93C6C08430F9F4F8018481958182
:100E4000A681B7810196A11DB11D84839583A683D8
:100E5000B7830E94EB176C197D098E099F09A301C6
:100E600092010E945920A90163E0C8010E94BB03BE
:100E7000E2E0D501EC93A5C0813069F5D801DA969E
:100E80004D915D916D917C91DD979E012F5F3F4F5C
:100E9000C8010E94D4048D83823009F092C08981F8
:100EA0009A81AB81BC81F80184839583A683B78343
:100EB0000E94EB176C197D098E099F09A30192010D
:100EC0000E945920A90163E0C8010E94BB03ED8183
:100ED000D501EC937CC0823009F073C0D801DA965A
:100EE0004D915D916D917C91DD979E012F5F3F4FFC
:100EF000C8010E94D4048D83853009F05CC083E072
:100F0000F5018083F80182A193A1A4A1B5A1892B49
:100F10008A2B8B2B41F484E893E0A0E0B0E082A31D
:100F200093A3A4A3B5A3F80186A197A1A0A5B1A5F9
:100F3000892B8A2B8B2B61F482A193A1A4A1B5A14B
:100F4000B695A7959795879586A397A3A0A7B1A7D0
:100F5000F80182A593A5A4A5B5A5892B8A2B8B2B77
:100F6000A9F482A193A1A4A1B5A1AC01BD0123E084
:100F700076956795579547952A95D1F7841B950BDC
:100F8000A60BB70B82A793A7A4A7B5A7F80186A1C4
:100F900097A1A0A5B1A586A797A7A0ABB1AB82A545
:100FA00093A5A4A5B5A582AB93ABA4ABB5AB222406
:100FB0002394312C0CC0FD81F63019F4D5011C921C
:100FC00006C0BD81BF3F19F4F50110821D82F1E01A
:100FD0002F16310409F409CF0E94EB176C197D0913
:100FE0008E099F09D801D6962D913D914D915C9126
:100FF000D997261737074807590708F0F6CEC401D6
:101000000E94D10EF80184819581A681B781019655
:10101000A11DB11D84839583A683B7830E94EB171E
:10102000F801FE966083718382839383C10102C0BD
:1010300080E090E00F900F900F900F900F90DF9155
:10104000CF911F910F91FF90EF90DF90CF90BF90C5
:10105000AF909F908F907F906F905F904F903F9058
:101060002F900895CF92DF92EF92FF920F931F93EC
:10107000CF93DF93EC016B011AA21BA21CA21DA24D
:101080001EA21FA218A619A61AA61BA61CA61DA65C
:101090002EAB3FAB48AF59AFEAAEFBAE0CAF1DAFC6
:1010A0008C01085F1F4F86E0F80111928A95E9F7DD
:1010B000CE010E94670386E0F601D80101900D92EF
:1010C0008A95E1F7FE01EE5BFF4F1082CE01DF91C2
:1010D000CF911F910F91FF90EF90DF90CF900C94E4
:1010E000A706FB014281538164817581FC01428323
:1010F000538364837583178216820895FB0120E071
:1011000080E090E06AE03191332309F170ED730FD4
:101110007A3080F4DC016A9FC0016B9F900D11242E
:10112000C097830F911D37FD9A958F3F910559F315
:1011300050F314C03E3291F4233081F0DA01A20F53
:10114000B11D12968C932F5F80E090E0DCCF2330AE
:1011500029F4FA01858381E090E0089580E090E031
:1011600008950F9300E020E040E060E08EE995E014
:101170000E94721B0F910895AF92BF92CF92DF929F
:10118000EF92FF920F931F93CF93DF9300D000D085
:101190001F92CDB7DEB78C017B010E94EB17F801DF
:1011A000778366837627672776277A836983085F44
:1011B0001F4F42E050E0BE016F5F7F4FC8010E94A9
:1011C000F20E81E090E09C838B8342E050E0BE0110
:1011D0006D5F7F4FC8010E94F20E80E091E09C831A
:1011E0008B8342E050E0BE016D5F7F4FC8010E94DB
:1011F000F20E1C821B8242E050E0BE016D5F7F4F09
:10120000C8010E94F20E42E050E0BE016D5F7F4FC8
:10121000C8010E94F20E42E050E0BE016D5F7F4FB8
:10122000C8010E94F20E6701F6018081882311F146
:10123000F7016F018191811115C05601AE18BF08E9
:101240001A141B0494F4AD8241E050E0BE016B5FC0
:101250007F4FC8010E94F20EA501B701C8010E948C
:10126000F20E03C08E3229F7E8CF7601FFEFEF1AB6
:10127000FF0ADACF1D8241E050E0BE016B5F7F4F75
:10128000C8010E94F20EE12CFF24F394FC82EB8251
:1012900042E050E0BE016D5F7F4FC8010E94F20E38
:1012A000FC82EB8242E050E0BE016D5F7F4FC801DF
:1012B0000E94F20E81E090E00F900F900F900F903F
:1012C0000F90DF91CF911F910F91FF90EF90DF90E2
:1012D000CF90BF90AF9008954F925F926F927F92A0
:1012E0008F929F92AF92BF92CF92DF92EF92FF9236
:1012F0000F931F93CF93DF93CDB7DEB763970FB6EE
:10130000F894DEBF0FBECDBF7C015B016A010E9475
:10131000EB172B013C018701085F1F4F4501A12CF2
:10132000B12CC8010E94920F1816190694F00E9461
:10133000EB17641975098609970986169706A8069A
:10134000B906D0F062E370E080E090E00E941A18E5
:10135000E8CFF7014281538164817581808D918D41
:10136000A28DB38D481759076A077B0741F4848D16
:10137000958DC59721F406C08FEF9FEFFAC08EEFD1
:101380009FEFF7C0C8010E94B60E0C97ECF04CE03E
:1013900050E0BE016F5F7F4FC8010E942F0F6C812C
:1013A0008B810E94251E9A8B898BF701E680F7803E
:1013B0006A8189810E94251EE816F90641F489890F
:1013C0009A8997FF04C009C08DEF9FEFD2C0C80172
:1013D0000E94D00E8CEF9FEFCCC08F709270892B43
:1013E00031F0C8010E94D00E8BEF9FEFC2C068851C
:1013F0008F810E94251E5C01009719F0E12CF12CD1
:1014000023C0C8010E94D00E8AEF9FEFB2C041E016
:1014100050E0BE01635F7F4FC8010E942F0F8D8592
:1014200081111AC08D858111F2CFC8010E94060F6B
:10143000C8010E94060FC8010E94060FC8010E9441
:10144000060FFFEFEF1AFF0A6E818D810E94251EA5
:10145000E816F906E0F20AC08D859FEF980F9D8788
:10146000882301F3C8010E94060FF6CFE12CF12C6E
:1014700041E050E0BE016D5E7F4FC8010E942F0F1A
:101480008B89982F907C61F4882371F08B899FEF72
:10149000980F9B8B882341F0C8010E94060FF6CF5E
:1014A000C8010E94060F1B8A8B898111E1CF42E09F
:1014B00050E0BE01615F7F4FC8010E942F0F42E0E4
:1014C00050E0BE01635F7F4FC8010E942F0FC8012B
:1014D0000E94060FC8010E94060FC8010E94060F55
:1014E000C8010E94060F42E050E0BE016F5E7F4FD0
:1014F000C8010E942F0F8F8598898115914029F48A
:101500008D859E858115914019F0812C912C16C0F6
:1015100089899A898115944031F0C8010E94D00EC2
:1015200087EF9FEF26C0B6016E5F7F4F44E050E02B
:10153000C8010E942F0F81E090E01BC089899A8921
:101540009827892798278816990638F4C8010E9499
:10155000060F2FEF821A920AF1CF8FEFE81AF80ADE
:10156000EA14FB0409F084CFC8010E94D00E86EF74
:101570009FEF63960FB6F894DEBF0FBECDBFDF912D
:10158000CF911F910F91FF90EF90DF90CF90BF9080
:10159000AF909F908F907F906F905F904F90089545
:1015A0008F929F92AF92BF92CF92DF92EF92FF9273
:1015B0000F931F93CF93DF9300D000D000D0CDB70F
:1015C000DEB78C015B016A010E947E084C01009726
:1015D00009F05DC0F8014281538164817581809179
:1015E000A0059091A105A091A205B091A30548176F
:1015F00059076A077B0709F44EC00E94EB17780170
:10160000F8E0EF0EF11C6F7077277C5FC7010E9436
:10161000650F813009F043C080E795E09A838983A4
:10162000F80182819381A481B5818B839C83AD83F2
:10163000BE8345E350E0BE016F5F7F4FC7010E944C
:10164000E60E892B19F4812C912C1DC0B501C8011F
:101650000E94BC08892BB9F3C7010E94EE0E892BAA
:1016600091F333E0A32EB12CA60168E873E1C80121
:101670000E946C094C01F1E0AF1AB10821F08F3FD4
:101680002FEF920789F3C7010E94D10E08C088246A
:101690008394912C04C09EEF892E99249A94C401BE
:1016A00026960FB6F894DEBF0FBECDBFDF91CF9167
:1016B0001F910F91FF90EF90DF90CF90BF90AF9070
:1016C0009F908F90089520914606222399F03FB76E
:1016D000F89420914606213059F42DB32093440606
:1016E0004DB320914506209524232DBB3FBF02C05A
:1016F000309344068CBD9DBD089580914606882395
:1017000061F09FB7F89420914606809144062130FD
:1017100019F48DBB9FBF08958FBF089544E050E03A
:10172000BC0181E090E00C94611544E050E0BC0104
:1017300085E090E00C94611544E050E0BC018FE03E
:1017400090E00C9461152F923F924F925F926F92AE
:101750007F928F929F92AF92BF92CF92DF92EF9241
:10176000FF920F931F93CF93DF9300D000D000D050
:10177000CDB7DEB76C011B0129013A0147015801C1
:1017800080910A06811107C087EE95E00E947810CB
:1017900081E080930A0684EA95E0F60197838683C8
:1017A00084E396E00E94F91480E590E00E94630BC8
:1017B00046E050E0B10189E090E00E94611500E050
:1017C00020E040E060E0CE0101960E94721BCE0155
:1017D00003960E949C0B0E947D0B85017401A3015E
:1017E0009201B101F601868197810E9432085C0165
:1017F00081309105B9F580E590E00E94630BF60118
:1018000066817781CE0101960E946E03CE01039618
:101810000E949C0BF60166817781CE0101960E94A1
:101820008403CE0103960E948E0BF60166817781B8
:10183000CE0101960E947903CE0103960E94950B7A
:101840000E947D0BF60166817781CE0101960E9490
:101850008F034B815C816D817E81F60142835383CE
:1018600064837583C50126960FB6F894DEBF0FBE5C
:10187000CDBFDF91CF911F910F91FF90EF90DF903F
:10188000CF90BF90AF909F908F907F906F905F9020
:101890004F903F902F900895CF93DF93EC010E94DB
:1018A000681B80E590E00E94630BBE016E5F7F4F76
:1018B00044E050E08FE090E00E9492160E947D0B81
:1018C000CE01DF91CF910895CF93DF93EC010E9479
:1018D000681B80E590E00E94630BBE016E5F7F4F46
:1018E00044E050E085E090E00E9492160E947D0B5B
:1018F000CE01DF91CF910895CF93DF93EC010E9449
:10190000681B80E590E00E94630BBE016E5F7F4F15
:1019100044E050E081E090E00E9492160E947D0B2E
:10192000CE01DF91CF91089520E735E0FC013183AE
:101930002083FB014281538164817581FC014283D4
:1019400053836483758308950F9300E020E040E0A3
:1019500060E08AE196E00E94721B82E096E00F91BF
:101960000C94681B81E086270895862F0895DC017A
:10197000ED91FC91048CF58DE02D099591E089277E
:101980000895CF93DF931F92CDB7DEB76983DC0153
:10199000ED91FC910280F381E02D41E050E0BE0129
:1019A0006F5F7F4F09950F90DF91CF91089521E0F0
:1019B000FC018485843009F420E0822F0895FC0125
:1019C0009485FB018485981303C081E0943009F469
:1019D00080E008950F931F93CF93DF93EC018A016A
:1019E0008C85843021F00E949B12892B39F481E090
:1019F00090E09B838A8380E090E001C0C801DF9182
:101A0000CF911F910F910895FC018485843011F0CE
:101A10000C94921380E090E00895CF93DF931F928F
:101A2000CDB7DEB741E050E0BE016F5F7F4FFC01F4
:101A300084850E943213181619061CF4898190E0DF
:101A400002C08FEF9FEF0F90DF91CF910895FC01BF
:101A500084850C9432130F931F93CF93DF931F92BF
:101A6000CDB7DEB78C01DC01ED91FC910480F581EE
:101A7000E02D0995892B51F0BE016F5F7F4FF80172
:101A800084850E94BD13898190E002C08FEF9FEF93
:101A90000F90DF91CF911F910F910895FC018485E4
:101AA0000C94EC13CF92DF92EF92FF920F931F935F
:101AB000CF93DF93CDB7DEB7AF970FB6F894DEBF05
:101AC0000FBECDBF7C018B016A01CE0101960E9441
:101AD000681BCE0109960E947810CE018A960E945A
:101AE000681B62E076E0CE0184960E94940CBE01F1
:101AF0006C5D7F4FCE0101960E947108AE01465D7C
:101B00005F4FB801CE0101960E94D00A8130910545
:101B1000C1F4D701ED91FC910484F585E02D80E7B7
:101B200095E09DA38CA30CA51DA52EA53FA50EA3F6
:101B30001FA328A739A7A601BE016C5D7F4FC7016F
:101B40000995AF960FB6F894DEBF0FBECDBFDF91FB
:101B5000CF911F910F91FF90EF90DF90CF9008955C
:101B6000FC011382128248EE53E060E070E044838F
:101B700055836683778386E195E09183808384E053
:101B800084870895FC018485843011F00C947711CA
:101B900080E00895DF92EF92FF920F931F93CF930F
:101BA000DF93EC017B018A018C85843009F045C00C
:101BB000D12C8D2D0E947711811102C0DC8607C0C7
:101BC0008B7F8831D9F3D39484E0D812F2CF8C85FF
:101BD000843099F120910A0130910B012F5F3F4F22
:101BE00011F420E030EC30930B0120930A01409176
:101BF0000A0150910B0120E061E00E94C911B70178
:101C00006E5F7F4FA8018C850E941D12811103C059
:101C100084E08C8712C0CE010E94C20D873151F042
:101C200061E070E080E090E00E941A18CE010E940E
:101C3000C20DECCF81E090E002C080E090E0DF9147
:101C4000CF911F910F91FF90EF90DF900895CF9269
:101C5000DF92EF92FF92CF93DF93EC018C8584307B
:101C600049F10E9475120E94EB176B017C01CE01B5
:101C70000E94C20D8823A1F061E070E080E090E056
:101C80000E941A180E94EB176C197D098E099F0992
:101C9000683E73408105910550F38C850E949F1129
:101CA000EC85F0E0EE0FFF1FEE5EF94F118210821F
:101CB00084E08C87DF91CF91FF90EF90DF90CF9001
:101CC0000895CF93DF93EC018C858430D1F0CE0161
:101CD0000E94C20D8431A9F0882399F0883189F0DF
:101CE0008C3169F4E881F9810480F581E02DCE0121
:101CF000099521E0892B09F420E0822F03C081E0BF
:101D000001C080E0DF91CF9108950F9300E020E0C3
:101D100040E060E080E296E00E94721B0F9108951F
:101D20000F9300E020E040E060E086E296E00E9451
:101D3000721B0F910895DC01ED91FC91008CF18DE7
:101D4000E02D099420E735E0FC0131832083FB017D
:101D50004089518962897389FC014283538364837A
:101D600075830895FC01848995890895FC01818D0E
:101D7000928D0895CF93DF931F92CDB7DEB769831D
:101D8000DC01ED91FC910280F381E02D41E050E017
:101D9000BE016F5F7F4F09950F90DF91CF9108953E
:101DA0000895CF93DF93EC01888D843061F00E9419
:101DB0009F11E88DF0E0EE0FFF1FEE5EF94F1182EC
:101DC000108284E0888FDF91CF910895FC01178AFB
:101DD000168A6E5F7F4F808D0C943414FC01808DC9
:101DE0000C947A14CF93DF93EC019A018E899F892A
:101DF000AB01BC01888D0E94ED132E893F89280F0D
:101E0000391F3F8B2E8BDF91CF9108950F931F9336
:101E1000CF93DF931F92CDB7DEB78C01FC01818D8C
:101E2000928D892B59F041E050E0BE016F5F7F4FEA
:101E3000808D0E943213181619061CF08FEF9FEF49
:101E400008C0F801818D928D0197928F818F8981D1
:101E500090E00F90DF91CF911F910F910895CF9354
:101E6000DF93EC01898D9A8D009719F48FEF9FEF26
:101E700010C04817590708F0AC01888D0E94321332
:101E8000181619069CF7298D3A8D281B390B3A8FA5
:101E9000298FDF91CF910895CF93DF931F92CDB714
:101EA000DEB7FC01218D328D232B49F0BE016F5F1F
:101EB0007F4F808D0E94BD13898190E002C08FEF1B
:101EC0009FEF0F90DF91CF910895FF920F931F9393
:101ED000CF93DF93EC018B01888D8430E1F4F12CFA
:101EE0008F2D0E947711811102C0F88E06C08831B3
:101EF000E1F3F39484E0F812F3CF888D843059F045
:101F00001D870C871A8E198E20E0A80162E00E94BE
:101F1000C91181E001C080E0DF91CF911F910F9145
:101F2000FF9008950F931F93CF93DF93CDB7DEB744
:101F300028970FB6F894DEBF0FBECDBF8C01F80115
:101F4000818D928D892B49F0D801ED91FC9106800D
:101F5000F781E02DC8010995F2CF808D0E94921380
:101F60001816190644F548E050E0BE016F5F7F4F38
:101F7000D80158968C910E94321318161906ECF469
:101F8000BE016F5F7F4FC8010E960E948E1B8D8130
:101F900090E0982F88272E81820F911DF801958B54
:101FA000848B8F8190E0982F88272885820F911D40
:101FB000928F818F02C080E090E028960FB6F8944F
:101FC000DEBF0FBECDBFDF91CF911F910F9108955E
:101FD0008F929F92AF92BF92CF92DF92EF92FF9239
:101FE0000F931F93CF93DF9300D000D000D0CDB7D5
:101FF000DEB78C017B014A01FC01808D843009F041
:1020000063C073E0A72E74E0B72EC12CD12CC5019C
:102010000E949015811103C0F801C08E0AC088315A
:10202000D9F3FFEFCF1ADF0AB394E4E0CE16D10460
:1020300071F7F801808D843009F446C096E0EDE038
:10204000F1E0DE01119601900D929A95E1F7F7010A
:1020500093819F779C8394819D8395819E83B70113
:102060006E5F7F4F90E0982F882744E050E0845FB8
:102070009B4F0E946115F801808D90E00496F82E28
:10208000EE24692DC70140960E94D714682DC70120
:1020900041960E94D714F801808D90E0982F8827F0
:1020A00046E050E0BE016F5F7F4F8A5F9B4F0E940A
:1020B0006115F801128E118E20E8A40162E0808D76
:1020C0000E94C91181E001C080E026960FB6F89405
:1020D000DEBF0FBECDBFDF91CF911F910F91FF905B
:1020E000EF90DF90CF90BF90AF909F908F9008952A
:1020F000CF93DF93EC011B821A8248EE53E060E03D
:1021000070E04C835D836E837F838AE395E09983DF
:102110008883CE010E960E94681B84E0888FDF9131
:10212000CF910895CF92DF92EF92FF920F931F937A
:10213000CF93DF93CDB7DEB7AF970FB6F894DEBF7E
:102140000FBECDBF7C018B016A01CE0101960E94BA
:10215000681BCE0109960E947810CE018A960E94D3
:10216000681B62E076E0CE0184960E94940CBE016A
:102170006C5D7F4FCE0101960E947108AE01465DF5
:102180005F4FB801CE0101960E94D00A81309105BF
:10219000C1F4D701ED91FC910088F189E02D80E731
:1021A00095E09DA38CA30CA51DA52EA53FA50EA370
:1021B0001FA328A739A7A601BE016C5D7F4FC701E9
:1021C0000995AF960FB6F894DEBF0FBECDBFDF9175
:1021D000CF911F910F91FF90EF90DF90CF900895D6
:1021E0000F9300E020E040E060E08CE296E00E9487
:1021F000721B0F910895CF92DF92EF92FF920F938F
:1022000030E0C12CF2E1DF2EFAE7EF2EF12C4C1575
:102210005D056E057F0540F4F694E794D794C79466
:102220003F5F3630A1F737E041E04327211102C07C
:1022300050E701C050E5242F30E0359527952370F5
:102240000C70202B252BFC012083417041830F91C2
:10225000FF90EF90DF90CF90089590E0982F88271F
:1022600044E050E0845F9B4F0C946115282F30E0D0
:102270002C5F3F4F922F8827860F971F0C94901545
:1022800062E070E00C943611FB01282F30E02C5FE7
:102290003F4F922F8827642F8E0F9F1F0C94D714C7
:1022A000CF93DF93C82FD62F472F64E070E00E94B2
:1022B00044114D2F65E070E08C2FDF91CF910C948D
:1022C0004411462F62E070E00C944411CF93DF93E9
:1022D000C82FD62F472F60E170E00E9444114D2F88
:1022E00061E170E08C2FDF91CF910C9444110F933A
:1022F0001F93CF93DF9300D01F92CDB7DEB7182F77
:1023000000E021E040E059E06DE370E0CE0101968D
:102310000E94FB1089819A810E94630B63E070E048
:10232000812F0E9436118B830E947D0B8B810F9031
:102330000F900F90DF91CF911F910F9108950F9300
:102340001F93CF93DF9300D0CDB7DEB7182F00E0F7
:1023500021E040E059E06DE370E0CE0101960E947B
:10236000FB1089819A810E94630B40E150E0612F4C
:1023700084E396E00E945A176FEF812F0E9461114B
:102380000E947D0B0F900F90DF91CF911F910F91C5
:102390000895CF92DF92EF92FF920F931F93CF9306
:1023A000DF9300D0CDB7DEB7182FD62E7A01C22E1C
:1023B0008FEF860F8530A8F5812F0E949F1100E0D6
:1023C00021E040E059E06DE370E0CE0101960E940B
:1023D000FB1089819A810E94630B4D2D4C2960E08E
:1023E00070E0812F0E944411E114F10411F0B70153
:1023F0000AC060913206709133066F5F7F4F709311
:10240000330660933206812F0E94501141E050E064
:10241000612F84E396E00E945A170E947D0B81E0B1
:1024200001C080E00F900F90DF91CF911F910F912D
:10243000FF90EF90DF90CF900895CF92DF92EF92D0
:10244000FF920F931F93CF93DF9300D0CDB7DEB7EA
:10245000182F7B016A01FB0180818F3F51F481813C
:102460008F3F99F482818F3F81F483818F3F69F49C
:1024700030C081110AC0FB018181811106C08281B7
:10248000811103C08381882321F1C114D10409F192
:1024900000E021E040E059E06DE370E0CE010196FC
:1024A0000E94FB1089819A810E94630BB701812FE2
:1024B0000E942D11B601812F0E94661144E050E068
:1024C000612F84E396E00E945A170E947D0B81E001
:1024D00001C080E00F900F90DF91CF911F910F917D
:1024E000FF90EF90DF90CF9008950F931F93CF93BD
:1024F000DF9300D0CDB7DEB7182F00E021E040E039
:1025000059E06DE370E0CE0101960E94FB108981D5
:102510009A810E94630B48E050E0612F84E396E0CB
:102520000E945A170E947D0B0F900F90DF91CF9160
:102530001F910F910895BF92CF92DF92EF92FF9279
:102540000F931F93CF93DF9300D01F92CDB7DEB7C9
:10255000B82E6B017A01413088E0580718F0E12C61
:1025600098E0F92E00E021E040E059E06DE370E0F2
:10257000CE0101960E94FB1089819A810E94630B13
:102580006B2D84E396E00E94C8158C0163E070E037
:102590008B2D0E9436118B830E947D0B8B8187319E
:1025A00011F08C3131F40E94A0170E151F05D0F2E6
:1025B00002C0E12CF12C00E021E040E059E06DE3A5
:1025C00070E0CE0101960E94FB1089819A810E94E1
:1025D000630B9701A6016B2D84E396E00E9487169A
:1025E00040E250E06B2D84E396E00E945A178B2D59
:1025F0000E94401184FD22C063E070E08B2D0E9498
:102600003611811108C00E947D0B8B2D0E949F11F5
:1026100080E090E01AC00E947D0B0E94A01700E0AD
:1026200021E040E059E06DE370E0CE0101960E94A8
:10263000FB1089819A810E94630BD9CF60E18B2DB9
:102640000E9461110E947D0BC7010F900F900F90A7
:10265000DF91CF911F910F91FF90EF90DF90CF907E
:10266000BF900895AF92BF92CF92DF92EF92FF9208
:102670000F931F93CF93DF9300D0CDB7DEB7182F02
:102680005B016A0100E021E040E059E06DE370E0A9
:10269000CE0101960E94FB1089819A810E94630BF2
:1026A000612F84E396E00E94FC157C010097A1F461
:1026B00063E070E0812F0E943611843119F1882384
:1026C00009F121E030E08C3111F420E030E0EE241B
:1026D000FF24E21AF30A16C0C816D9060CF47601D4
:1026E0001E141F047CF400E09701A501612F84E310
:1026F00096E00E940A1740E450E0612F84E396E0E0
:102700000E945A170E947D0BC7010F900F90DF9116
:10271000CF911F910F91FF90EF90DF90CF90BF90DE
:10272000AF9008950F931F93CF93DF9300D000D005
:10273000CDB7DEB7182F00E021E040E059E06DE3AF
:1027400070E0CE0101960E94FB1089819A810E945F
:10275000630B612F84E396E00E94FC158B839C83BE
:102760000E947D0B8B819C810F900F900F900F909A
:10277000DF91CF911F910F910895EF92FF920F93E8
:102780001F93CF93DF9300D0CDB7DEB7182F7B0117
:1027900000E021E040E059E06DE370E0CE010196F9
:1027A0000E94FB1089819A810E94630B01E021E065
:1027B00030E0A701612F84E396E00E940A170E948F
:1027C0007D0B81E090E00F900F90DF91CF911F91F2
:1027D0000F91FF90EF90089508959F92AF92BF924E
:1027E000CF92DF92EF92FF920F931F93CF93DF93DD
:1027F00000D0CDB7DEB7982E6B015A01790100E009
:1028000021E040E059E06DE370E0CE0101960E94C6
:10281000FB1089819A810E94630B692D84E396E005
:102820000E94C8158E159F0530F4692D84E396E04B
:102830000E94C8157C0187019501A601692D84E3DA
:1028400096E00E9418160E947D0BC7010F900F9012
:10285000DF91CF911F910F91FF90EF90DF90CF907C
:10286000BF90AF909F900895CF92DF92EF92FF922A
:102870000F931F93CF93DF9300D0CDB7DEB7182F00
:102880007B016A01FB018081811109C08181811175
:1028900006C08281811103C083818823F1F0C114B5
:1028A000D104D9F000E021E040E059E06DE370E0B0
:1028B000CE0101960E94FB1089819A810E94630BD0
:1028C000B701812F0E942D11B601812F0E94661140
:1028D0000E947D0B81E090E002C080E090E00F90CC
:1028E0000F90DF91CF911F910F91FF90EF90DF90AC
:1028F000CF9008950F931F93CF93DF9300D0CDB760
:10290000DEB7182F00E021E040E059E06DE370E011
:10291000CE0101960E94FB1089819A810E94630B6F
:1029200040E250E0612F84E396E00E945A17812F25
:102930000E94401184FD21C0812F0E94401183FF1D
:1029400009C068E1812F0E9461110E947D0B80E027
:1029500090E01BC00E947D0B0E94A01700E021E0C8
:1029600040E059E06DE370E0CE0101960E94FB105B
:1029700089819A810E94630BDACF60E1812F0E94E6
:1029800061110E947D0B81E090E00F900F90DF912C
:10299000CF911F910F9108958EBD00000DB407FED9
:1029A000FDCF8EB508952A9808952A9A08951F9309
:1029B000CF93DF9300D0CDB7DEB7182F6A8399830A
:1029C0000E94D31480EF0E94CC149981892F0E9419
:1029D000CC14812F0E94CC146A81862F0E94CC14C3
:1029E0000E94D51481E00F900F90DF91CF911F913D
:1029F0000895CF93DF93EC016CE271E080E090E00A
:102A00000E941A180E946A17229A8091460688230B
:102A100099F09FB7F89480914606813059F48DB3B0
:102A2000809344062DB380914506809582238DBB0B
:102A30009FBF02C09093440680E58CBD1DBC60E83A
:102A400080E090E00E94D71465E58BE190E00E9461
:102A5000D71465E58AE190E00E94D714809146067C
:102A6000882361F09FB7F894209146068091440630
:102A7000213019F48DBB9FBF01C08FBF80E090E46F
:102A80009983888380E090E69987888780E098E43E
:102A90009B838A8380E098E69B878A8780E090E525
:102AA0009D838C8380E090E79D878C8780E098E50C
:102AB0009F838E8380E098E79F878E87DF91CF91F9
:102AC0000895CF92DF92EF92FF920F931F93CF93CF
:102AD000DF93EC017A018B016C01C40ED51ECC157D
:102AE000DD05A1F00E94D31480EF0E94CC148D2F3D
:102AF0000E94CC148C2F0E94CC142196F801819155
:102B00008F010E94CC140E94D514E9CFC701DF9138
:102B1000CF911F910F91FF90EF90DF90CF9008958C
:102B20001F93CF93DF931F92CDB7DEB7182F9983F2
:102B30000E94D3148FE00E94CC149981892F0E94A7
:102B4000CC14812F0E94CC1480E00E94CC14898385
:102B50000E94D51489810F90DF91CF911F91089524
:102B60001F93CF93DF93182F60E270E00E9436111D
:102B7000C82FD0E061E270E0812F0E943611DC2F77
:102B8000CC279E01282BC901DF91CF911F91089579
:102B9000FF920F931F93CF93DF93F62EC0E0D0E008
:102BA0008F2D0E94B0158C01009721F08F2D0E946F
:102BB000B015EC01C017D10799F7CE01DF91CF9185
:102BC0001F910F91FF9008951F93CF93DF93182FBC
:102BD00066E270E00E943611C82FD0E067E270E034
:102BE000812F0E943611DC2FCC279E01282BC90192
:102BF000DF91CF911F910895FF920F931F93CF9371
:102C0000DF93F62EC0E0D0E08F2D0E94E4158C01FA
:102C1000009721F08F2D0E94E415EC01C017D10719
:102C200099F7CE01DF91CF911F910F91FF900895F9
:102C30006F927F929F92AF92BF92CF92DF92EF926C
:102C4000FF920F931F93CF93DF931F92CDB7DEB701
:102C5000D82E962E3A01590164E270E0892D9983AD
:102C60000E943611E82EF12C65E270E0892D0E9459
:102C70003611FE2CEE24E82AE60CF71C970137707B
:102C80006D2C9981792E690C711C690C711CD30112
:102C9000ED91FC91E20FF31FC901800F911F81306C
:102CA0009840A0F0C12C48E0D42EC21AD30AA60145
:102CB000B501CF010E946115A8014C195D09B5014C
:102CC0006C0D7D1DF3018081918103C0A801B501C8
:102CD000CF010E946115E00EF11E4F2D64E270E0FD
:102CE000892D0E9444114E2D65E270E0892D0F90D0
:102CF000DF91CF911F910F91FF90EF90DF90CF90D8
:102D0000BF90AF909F907F906F900C9444110F9361
:102D10001F9389019A0140E050E00E9418161F910C
:102D20000F910895CF92DF92EF92FF920F931F932E
:102D3000CF93DF93EC017A018B016C01C40ED51E99
:102D4000CC15DD05A9F00E94D3148FE00E94CC14AD
:102D50008D2F0E94CC148C2F0E94CC14219680E0E1
:102D60000E94CC14F80181938F010E94D514E8CF02
:102D7000C701DF91CF911F910F91FF90EF90DF90EE
:102D8000CF900895AF92BF92CF92DF92EF92FF92D1
:102D90000F931F93CF93DF9300D0CDB7DEB75A8345
:102DA00049835901E981FA81F7707C01E60EF11C33
:102DB000E60EF11CD70118968D919C9119978E0FF4
:102DC0009F1F98012E0F3F1F2130384098F0C12CD3
:102DD00068E0D62ECE1ADF0AA601B5010E9492162F
:102DE000A8014C195D09B5016C0D7D1DF7018085A9
:102DF000918502C0A801B5010F900F90DF91CF918E
:102E00001F910F91FF90EF90DF90CF90BF90AF9008
:102E10000C9492168F929F92AF92BF92CF92DF92B4
:102E2000EF92FF920F931F93CF93DF936C01962E37
:102E30005A017901802E68E270E0892D0E943611D6
:102E4000C82FD0E069E270E0892D0E943611DC2F96
:102E5000CC27C82B87019501AE01692DC6010E94C0
:102E6000C21681101AC0CE0DDF1D4D2F68E270E032
:102E7000892D0E9444114C2F69E270E0892DDF9169
:102E8000CF911F910F91FF90EF90DF90CF90BF9067
:102E9000AF909F908F900C944411DF91CF911F9130
:102EA0000F91FF90EF90DF90CF90BF90AF909F90E9
:102EB0008F900895CF93C62F61E070E08C2F0E9411
:102EC000441161E070E08C2F0E9436118111F9CF1E
:102ED000CF910895CF93CFB7F89480914706811191
:102EE00027C0EAE9F0E08491E6E8F0E09491E82F69
:102EF000F0E0EE0FFF1FE255FF4FA591B4918C91CA
:102F0000892321F461E08AE00E940E1961E08AE0E1
:102F10000E94D5188CB580618CBD8CB580648CBD49
:102F200061E08DE00E94D51861E08BE00E94D51829
:102F3000809147068F5F80934706CFBFCF9108955A
:102F400008951F920F920FB60F9211242F933F9363
:102F50008F939F93AF93BF938091490690914A06B8
:102F6000A0914B06B0914C063091480623E0230F08
:102F70002D3720F40196A11DB11D05C026E8230FB1
:102F80000296A11DB11D2093480680934906909397
:102F90004A06A0934B06B0934C0680914D06909143
:102FA0004E06A0914F06B09150060196A11DB11D8D
:102FB00080934D0690934E06A0934F06B093500613
:102FC000BF91AF919F918F913F912F910F900FBE25
:102FD0000F901F9018952FB7F89460914906709143
:102FE0004A0680914B0690914C062FBF08953FB73B
:102FF000F89480914D0690914E06A0914F06B091A5
:10300000500626B5A89B05C02F3F19F00196A11DBB
:10301000B11D3FBF6627782F892F9A2F620F711D30
:10302000811D911D42E0660F771F881F991F4A95E9
:10303000D1F708958F929F92AF92BF92CF92DF9275
:10304000EF92FF926B017C010E94F7174B015C012C
:10305000C114D104E104F104F1F00E94A0170E9410
:10306000F717681979098A099B09683E7340810539
:10307000910570F321E0C21AD108E108F10888EE49
:10308000880E83E0981EA11CB11CC114D104E10478
:10309000F10429F7DDCFFF90EF90DF90CF90BF9044
:1030A000AF909F908F900895789484B5826084BD8E
:1030B00084B5816084BD85B5826085BD85B581603C
:1030C00085BDEEE6F0E0808181608083E1E8F0E09C
:1030D0001082808182608083808181608083E0E8CB
:1030E000F0E0808181608083E1EBF0E080818460AA
:1030F0008083E0EBF0E0808181608083EAE7F0E0AC
:10310000808184608083808182608083808181600F
:1031100080838081806880831092C10008958E3002
:1031200008F08E50877020910C0190E4299F900147
:103130001124822B80937C0080917A00806480939C
:103140007A0080917A0086FDFCCF809178002091F2
:10315000790090E0922B0895833081F028F481303B
:1031600099F08230A1F008958730A9F08830B9F045
:103170008430D1F4809180008F7D03C080918000E5
:103180008F7780938000089584B58F7702C084B5CF
:103190008F7D84BD08958091B0008F7703C08091AA
:1031A000B0008F7D8093B0000895CF93DF9390E0BF
:1031B000FC01E458FF4F2491FC01E057FF4F84913C
:1031C000882349F190E0880F991FFC01E255FF4FD9
:1031D000A591B4918C559F4FFC01C591D4919FB797
:1031E000611108C0F8948C91209582238C9388817A
:1031F00082230AC0623051F4F8948C91322F3095BA
:1032000083238C938881822B888304C0F8948C91CB
:10321000822B8C939FBFDF91CF9108950F931F93C3
:10322000CF93DF931F92CDB7DEB7282F30E0F9019F
:10323000E859FF4F8491F901E458FF4F1491F901C7
:10324000E057FF4F04910023C9F0882321F06983E0
:103250000E94AC186981E02FF0E0EE0FFF1FEC55E3
:10326000FF4FA591B4919FB7F8948C91611103C061
:103270001095812301C0812B8C939FBF0F90DF910C
:10328000CF911F910F910895FC01818D228D90E0C7
:10329000805C9F4F821B91098F7399270895FC01D1
:1032A000918D828D981731F0828DE80FF11D858DFB
:1032B00090E008958FEF9FEF0895FC01918D828D2E
:1032C000981761F0828DDF01A80FB11D5D968C917A
:1032D000928D9F5F9F73928F90E008958FEF9FEF85
:1032E000089581EE9AE1892B49F080E090E0892BE6
:1032F00029F00E94E11A81110C9400000895FC014C
:10330000848DDF01A80FB11DA35ABF4F2C91848D6E
:1033100090E001968F739927848FA689B7892C93A3
:10332000A089B1898C9180648C93938D848D98133E
:1033300006C00288F389E02D80818F7D8083089507
:10334000CF93DF93EC01888D8823C9F0EA89FB894C
:10335000808185FD05C0A889B9898C9186FD0FC043
:103360000FB607FCF5CF808185FFF2CFA889B98918
:103370008C9185FFEDCFCE010E947F19E7CFDF91C1
:10338000CF910895CF92DF92FF920F931F93CF9327
:10339000DF931F92CDB7DEB76C0181E0D60158965E
:1033A0008C9358975B969C915B975C968C915C97FD
:1033B000981307C05096ED91FC915197808185FD3F
:1033C0002EC0F601038D10E00F5F1F4F0F73112702
:1033D000F02EF601848DF81211C00FB607FCF9CF5C
:1033E000D6015096ED91FC915197808185FFF1CFE8
:1033F000C60169830E947F196981EBCF838DE80F35
:10340000F11DE35AFF4F6083D6015B960C935B97E7
:103410005296ED91FC915397808180620CC0D60149
:103420005696ED91FC91579760835096ED91FC91E3
:10343000519780818064808381E090E00F90DF91DC
:10344000CF911F910F91FF90DF90CF900895BF9281
:10345000CF92DF92EF92FF92CF93DF93EC016A015C
:103460007B01B22EE889F98982E08083411581EEE3
:10347000580761057105A1F060E079E08DE390E007
:10348000A70196010E945920215031094109510993
:103490005695479537952795211580E1380798F07F
:1034A000E889F989108260E874E88EE190E0A7016C
:1034B00096010E9459202150310941095109569520
:1034C000479537952795EC85FD853083EE85FF85FB
:1034D0002083188EEC89FD89B082EA89FB8980817E
:1034E00080618083EA89FB89808188608083EA89A2
:1034F000FB89808180688083EA89FB8980818F7D58
:103500008083DF91CF91FF90EF90DF90CF90BF90BD
:1035100008951F920F920FB60F9211242F938F933D
:103520009F93EF93FF93E0916106F0916206808193
:10353000E0916706F091680682FD12C0908180914B
:103540006A068F5F8F7320916B06821751F0E091AE
:103550006A06F0E0EF5AF94F958F80936A0601C032
:103560008081FF91EF919F918F912F910F900FBECE
:103570000F901F9018951F920F920FB60F92112463
:103580002F933F934F935F936F937F938F939F936B
:10359000AF93BF93EF93FF9381E596E00E947F196D
:1035A000FF91EF91BF91AF919F918F917F916F911B
:1035B0005F914F913F912F910F900FBE0F901F90F1
:1035C000189581E596E00E94441921E0892B09F4C1
:1035D00020E0822F0895109254061092530688EE30
:1035E00093E0A0E0B0E08093550690935606A09338
:1035F0005706B093580680E695E090935206809364
:10360000510685EC90E090935E0680935D0684EC15
:1036100090E09093600680935F0680EC90E090933A
:1036200062068093610681EC90E09093640680933B
:10363000630682EC90E0909366068093650686ECC4
:1036400090E0909368068093670610926A06109245
:103650006B0610926C0610926D060895AF92BF92A1
:10366000CF92DF92EF92FF920F931F93CF93DF934E
:103670006C017B01C0E0D0E000E010E0F601EC0F4F
:10368000FD1F4AE050E06281C7010E94DF1C5C011F
:103690006EE2C7010E94E81B8A0D9B1D080F191FCF
:1036A0002196C330D10551F74AE050E0F60165811B
:1036B000C7010E94DF1C800F911FDF91CF911F91E6
:1036C0000F91FF90EF90DF90CF90BF90AF90089553
:1036D00020E735E0FC0131832083128213821482BB
:1036E000158208950F93FC0180E795E09183808314
:1036F00062834383248305830F91089520E735E097
:10370000FC0131832083FB014081518162817381FF
:10371000FC0142835383648375830895FB014081D8
:10372000518162817381FC01428353836483758379
:10373000089580E795E09093EF068093EE0610924F
:10374000F0061092F1061092F2061092F306089518
:10375000CF92DF92EF92FF920F931F93CF93DF935D
:103760007C016A01EB0100E010E00C151D0571F011
:103770006991D701ED91FC910190F081E02DC70195
:103780000995892B19F00F5F1F4FEFCFC801DF910B
:10379000CF911F910F91FF90EF90DF90CF90089500
:1037A0006115710581F0DB010D900020E9F7AD0195
:1037B00041505109461B570BDC01ED91FC910280F1
:1037C000F381E02D099480E090E008950C94D01BE3
:1037D000DC01ED91FC910190F081E02D0994DB0179
:1037E000ED91FC9111970190F081E02DBC01CD018C
:1037F000099462E775E00C94D01B0F931F93CF934D
:10380000DF93EC010E94D01B8C01CE010E94F91BBA
:10381000800F911FDF91CF911F910F9108950F930A
:103820001F93CF93DF93EC010E94EF1B8C01CE011D
:103830000E94F91B800F911FDF91CF911F910F9173
:1038400008958F929F92AF92BF92DF92EF92FF9274
:103850000F931F93CF93DF93CDB7DEB7A1970FB62A
:10386000F894DEBF0FBECDBF7C01F42FD52ECB0167
:1038700019A2223008F42AE08E010F5D1F4F822E1C
:10388000912CA12CB12C6F2F7D2DA50194010E94AC
:103890005920F22FD32ECA01015011096A3014F4B5
:1038A000E0E301C0E7E3E60FD801EC93232B242BE0
:1038B000252B49F7B801C7010E94D01BA1960FB66E
:1038C000F894DEBF0FBECDBFDF91CF911F910F9156
:1038D000FF90EF90DF90BF90AF909F908F900895F2
:1038E000CF92DF92EF92FF920F931F93CF93DF93CC
:1038F000EC016A017B012115310579F4E881F98138
:103900000190F081E02D642FDF91CF911F910F91F5
:10391000FF90EF90DF90CF9009942A303105E9F4C1
:1039200077FF1AC06DE20E94E81B8C0144275527DF
:10393000BA014C195D096E097F092AE0CE010E9487
:10394000211C800F911FDF91CF911F910F91FF904C
:10395000EF90DF90CF9008952AE0B701A601CE0145
:10396000DF91CF911F910F91FF90EF90DF90CF905B
:103970000C94211C0F931F93CF93DF93EC019A01BA
:10398000AB01662757FD6095762F0E94701C8C0155
:10399000CE010E94F91B800F911FDF91CF911F91E3
:1039A0000F9108952115310541F4DC01ED91FC9151
:1039B0000190F081E02D642F09940C94211C9A0150
:1039C000462F50E060E070E00C94D21C4F925F9262
:1039D0006F927F928F929F92AF92BF92CF92DF921F
:1039E000EF92FF920F931F93CF93DF93EC016A0145
:1039F0007B01B22E9A01AB01C701B6010E9455208E
:103A0000882319F065E775E027C026013701E8949F
:103A100077F82FEF3FEF4FE75FE7C301B2010E9456
:103A2000552081110DC02FEF3FEF4FE75FE7C30136
:103A3000B2010E949F1E18161CF469E775E00CC0C5
:103A40002FEF3FEF4FE75FE4C701B6010E94EE1F83
:103A50001816ACF46DE775E0CE01DF91CF911F91A0
:103A60000F91FF90EF90DF90CF90BF90AF909F901D
:103A70008F907F906F905F904F900C94D01B2FEFA2
:103A80003FEF4FE75FECC701B6010E949F1E87FD25
:103A9000E1CF20E030E0A901C701B6010E949F1EDE
:103AA00087FF0AC06DE2CE010E94E81B8C01F7FA85
:103AB000F094F7F8F09402C000E010E0A12C60E070
:103AC00070E080E09FE3AB1441F020E030E040E2A2
:103AD00051E40E94A31EA394F6CF9B01AC01C70141
:103AE000B6010E943B1E6B017C010E94101F2B013E
:103AF0003C010E943C1F9B01AC01C701B6010E9422
:103B00003A1E6B017C012AE0B301A201CE010E94A2
:103B1000211C080F191FBB2039F063E471E0CE01AE
:103B20000E94D01B080F191F7B2C772041F120E049
:103B300030E040E251E4C701B6010E94F21F6B0180
:103B40007C010E940B1F4B01AA2497FCA094BA2C65
:103B50002AE030E0B501A401CE010E94701C080FDC
:103B6000191FC501B4010E943E1F9B01AC01C70192
:103B7000B6010E943A1E6B017C017A94D6CFC8012F
:103B8000DF91CF911F910F91FF90EF90DF90CF9039
:103B9000BF90AF909F908F907F906F905F904F906D
:103BA00008950C94E61C0F931F93CF93DF93EC01C1
:103BB0000E94E61C8C01CE010E94F91B800F911F10
:103BC000DF91CF911F910F910895CF93DF9300D094
:103BD00000D0CDB7DEB79B01AC0161157105810541
:103BE000910569F069833A834B835C830E94372295
:103BF00029813A814B815C810E947B2003C060E077
:103C000070E0CB010F900F900F900F90DF91CF914C
:103C10000895CF92DF92EF92FF926B017C016217C1
:103C200073078407950764F4CA01B9016C197D090B
:103C30008E099F090E94E51D6C0D7D1D8E1D9F1D27
:103C4000FF90EF90DF90CF90089570E09B01382BAC
:103C5000C901089508950E9454180E942A1E0E94C6
:103C6000F401C1E7D9E10E9436032097E1F30E94F5
:103C70007119F9CF5058BB27AA270ED075C166D14C
:103C800030F06BD120F031F49F3F11F41EF45BC192
:103C90000EF4E095E7FB51C1E92F77D180F3BA1715
:103CA000620773078407950718F071F49EF58FC1BA
:103CB0000EF4E0950B2EBA2FA02D0B01B901900147
:103CC0000C01CA01A0011124FF27591B99F0593F8B
:103CD00050F4503E68F11A16F040A22F232F342FD3
:103CE0004427585FF3CF469537952795A795F04021
:103CF0005395C9F77EF41F16BA0B620B730B840B36
:103D0000BAF09150A1F0FF0FBB1F661F771F881FED
:103D1000C2F70EC0BA0F621F731F841F48F4879545
:103D200077956795B795F7959E3F08F0B3CF939534
:103D3000880F08F09927EE0F979587950895D9D0A9
:103D400008F481E008950CD00FC107D140F0FED0F7
:103D500030F021F45F3F19F0F0C0511139C1F3C0C8
:103D600014D198F39923C9F35523B1F3951B550B3F
:103D7000BB27AA2762177307840738F09F5F5F4F3E
:103D8000220F331F441FAA1FA9F333D00E2E3AF07F
:103D9000E0E830D091505040E695001CCAF729D099
:103DA000FE2F27D0660F771F881FBB1F26173707E8
:103DB0004807AB07B0E809F0BB0B802DBF01FF2718
:103DC00093585F4F2AF09E3F510568F0B6C000C17E
:103DD0005F3FECF3983EDCF3869577956795B79552
:103DE000F7959F5FC9F7880F911D9695879597F96D
:103DF0000895E1E0660F771F881FBB1F62177307E6
:103E00008407BA0720F0621B730B840BBA0BEE1FFA
:103E100088F7E095089504D06894B111D9C0089549
:103E2000BCD088F09F5790F0B92F9927B751A0F0D8
:103E3000D1F0660F771F881F991F1AF0BA95C9F73E
:103E400012C0B13081F0C3D0B1E00895C0C0672F77
:103E5000782F8827B85F39F0B93FCCF386957795EE
:103E60006795B395D9F73EF49095809570956195D7
:103E70007F4F8F4F9F4F0895E89409C097FB3EF402
:103E800090958095709561957F4F8F4F9F4F9923A7
:103E9000A9F0F92F96E9BB279395F6958795779525
:103EA0006795B795F111F8CFFAF4BB0F11F460FFE5
:103EB0001BC06F5F7F4F8F4F9F4F16C0882311F03D
:103EC00096E911C0772321F09EE8872F762F05C051
:103ED000662371F096E8862F70E060E02AF09A95EC
:103EE000660F771F881FDAF7880F9695879597F9E1
:103EF0000895990F0008550FAA0BE0E8FEEF16167B
:103F00001706E807F907C0F012161306E407F507CD
:103F100098F0621B730B840B950B39F40A2661F041
:103F2000232B242B252B21F408950A2609F4A140E4
:103F3000A6958FEF811D811D089597F99F6780E8F1
:103F400070E060E008959FEF80EC089500240A94EB
:103F50001616170618060906089500240A94121664
:103F60001306140605060895092E0394000C11F497
:103F7000882352F0BB0F40F4BF2B11F460FF04C044
:103F80006F5F7F4F8F4F9F4F089557FD9058440F9D
:103F9000551F59F05F3F71F04795880F97FB991FA8
:103FA00061F09F3F79F08795089512161306140665
:103FB000551FF2CF4695F1DF08C0161617061806F2
:103FC000991FF1CF86957105610508940895E894CD
:103FD000BB2766277727CB0197F908958ADF08F476
:103FE0008FEF08950BD0C0CFB1DF28F0B6DF18F007
:103FF000952309F0A2CFA7CF1124EACFC6DFA0F303
:10400000959FD1F3950F50E0551F629FF001729F6D
:10401000BB27F00DB11D639FAA27F00DB11DAA1F8C
:10402000649F6627B00DA11D661F829F2227B00DD9
:10403000A11D621F739FB00DA11D621F839FA00D64
:10404000611D221F749F3327A00D611D231F849FB4
:10405000600D211D822F762F6A2F11249F5750400B
:104060008AF0E1F088234AF0EE0FFF1FBB1F661FA6
:10407000771F881F91505040A9F79E3F510570F05F
:104080005CCFA6CF5F3FECF3983EDCF38695779547
:104090006795B795F795E7959F5FC1F7FE2B880F5A
:1040A000911D9695879597F9089523DF880B990BB5
:1040B0000895A1E21A2EAA1BBB1BFD010DC0AA1F69
:1040C000BB1FEE1FFF1FA217B307E407F50720F081
:1040D000A21BB30BE40BF50B661F771F881F991FFC
:1040E0001A9469F760957095809590959B01AC0145
:1040F000BD01CF010895052E97FB1EF400940E9488
:10410000922057FD07D00E94592007FC03D04EF49F
:104110000C94922050954095309521953F4F4F4FEC
:104120005F4F089590958095709561957F4F8F4F63
:104130009F4F08956927962769277827872778272B
:104140000895A29FB001B39FC001A39F700D811D70
:104150001124911DB29F700D811D1124911D089590
:104160000E94A120A59F900DB49F900DA49F800D4B
:10417000911D11240895EE0FFF1F0590F491E02D7D
:104180000994CF93DF938230910510F482E090E0A0
:10419000E091F606F091F70620E030E0A0E0B0E014
:1041A000309739F14081518148175907B8F04817C5
:1041B000590771F482819381109729F013969C938B
:1041C0008E9312972CC09093F7068093F60627C023
:1041D0002115310531F04217530718F0A901DB0111
:1041E00001C0EF019A01BD01DF010280F381E02DE2
:1041F000D7CF21153105F9F0281B390B24303105B3
:1042000080F48A819B816115710521F0FB01938304
:10421000828304C09093F7068093F606FE013296DF
:1042200044C0FE01E20FF31F8193919322503109A4
:10423000398328833AC02091F4063091F506232B68
:1042400041F420910201309103013093F50620934F
:10425000F40620910001309101012115310541F44E
:104260002DB73EB74091040150910501241B350B39
:10427000E091F406F091F506E217F307A0F42E1B87
:104280003F0B2817390778F0AC014E5F5F4F2417BA
:10429000350748F04E0F5F1F5093F5064093F40624
:1042A0008193919302C0E0E0F0E0CF01DF91CF91E4
:1042B0000895CF93DF93009709F487C0FC013297EC
:1042C00013821282C091F606D091F706209781F4EE
:1042D00020813181280F391F8091F4069091F506D5
:1042E0008217930779F5F093F506E093F4066DC015
:1042F000DE0120E030E0AE17BF0750F412964D917A
:104300005C9113979D014115510509F1DA01F3CF35
:10431000B383A28340815181840F951F8A179B0725
:1043200071F48D919C911197840F951F0296918342
:10433000808312968D919C9113979383828321158C
:10434000310529F4F093F706E093F6063EC0D90153
:104350001396FC93EE9312974D915D91A40FB51FA8
:10436000EA17FB0779F480819181840F951F0296EB
:10437000D90111969C938E938281938113969C937D
:104380008E931297E0E0F0E08A819B81009719F00C
:10439000FE01EC01F9CFCE01029628813981820F0E
:1043A000931F2091F4063091F5062817390769F418
:1043B000309729F41092F7061092F60602C0138285
:1043C0001282D093F506C093F406DF91CF91089541
:1043D0008F929F92AF92BF92CF92DF92EF92FF9215
:1043E000CF93DF93EC01688179818A819B8161158C
:1043F00071058105910521F464E279ED8BE597E083
:104400002DE133EF41E050E00E947B2049015A0149
:104410009B01AC01A7EAB1E40E94B0206B017C01D2
:10442000ACEEB4EFA50194010E945C22C60ED71E2B
:10443000E81EF91EF7FE06C081E0C81AD108E1089F
:1044400080E8F80AC882D982EA82FB82C701B601F5
:104450009F77DF91CF91FF90EF90DF90CF90BF904B
:10446000AF909F908F9008950E94E821089586E074
:1044700091E00E94E821089560930601709307017E
:1044800080930801909309010895FB01DC0104C0A9
:104490008D910190801921F441505040C8F7881B3C
:1044A000990B0895FB01DC0101900D920020E1F7CA
:1044B0000895B7FF0C94B0200E94B020821B930B8C
:0644C0000895F894FFCFFF
:1044C6000000F80680000100000000C00101005E47
:1044D60000000073616C696E6173617265616D6F76
:1044E60064656C6572732E6F7267000A526561644B
:1044F600696E672077696E642073706565642E2E19
:104506002E2E2E2E00566F6C746167653A200009B8
:104516000057696E642073706565643A200033360F
:104526003235000A2D2D2D2D2D2D2D2D2D2D2D2DF8
:104536002D2044484350204E6574776F726B20439C
:104546006F6E66696775726174696F6E202D2D2DA9
:104556002D2D2D2D2D2D2D2D2D2D2D0A00495020A3
:10456600616464726573733A20005375626E657494
:10457600206D61736B3A200047617465776179201D
:10458600616464726573733A20002D2D2D2D2D2DD7
:104596002D2D2D2D2D2D2D2D2D2D2D2D2D2D2D2D45
:1045A6002D2D2D2D2D2D2D2D2D2D2D2D2D2D2D2D35
:1045B6002D2D2D2D2D2D2D2D2D2D2D2D2D2D2D2D25
:1045C6002D0A000A436F6E6E656374696F6E207301
:1045D60074617475733A2000756E617661696C61F9
:1045E600626C650A005374617274696E6720414D8E
:1045F60041206169726669656C6420616E656D6FE4
:104606006D657465722E2E2E2E2E2E2E2E2E2E2E8D
:104616002E0A0A005374617274696E6720657468A5
:1046260065726E657420636F6E74726F6C6C657202
:104636002E2E2E2E2E0A002A2A2A2A2A2A2A2A2A0A
:104646002A2A2A2A2A2A2A20414D412041697266AD
:1046560069656C6420416D656D6F6D65746572206A
:104666002A2A2A2A2A2A2A2A2A2A2A2A2A2A2A2AA4
:104676000A00416E656D6F6D6574657220436F6EDD
:1046860066696775726174696F6E3A0A00416E6594
:104696006D6F6D6574657220636F6E6E65637469A8
:1046A6006F6E2070696E3A20004D696E696D756D8A
:1046B60020616E656D6F6D6574657220696E7075CB
:1046C6007420766F6C746167653A20004D61786975
:1046D6006D756D20616E656D6F6D657465722069AF
:1046E6006E70757420766F6C746167653A20004D44
:1046F6006178696D756D2077696E64207370656584
:1047060064205B6D2F732C206D70682C206B6E6F90
:1047160074735D3A20004E6F74653A2041524546E7
:104726002070696E206D75737420686176652061EE
:1047360020636F6E7374616E7420322E302076643F
:104746006320737570706C696564004169722073CB
:1047560070656564207365727665723A20002A2A50
:104766002A2A2A2A2A2A2A2A2A2A2A2A2A2A2A2AA3
:104776002A2A2A2A2A2A2A2A2A2A2A2A2A2A2A2A93
:104786002A2A2A2A2A2A2A2A2A2A2A2A2A2A2A2A83
:104796002A2A2A2A2A2A2A0A005B4552524F525DA1
:1047A6003A204661696C656420746F207374617287
:1047B600742065746865726E657420636F6E7472BA
:1047C6006F6C6C6572000A417474656D7074696E05
:1047D6006720746F207570646174652077696E64F4
:1047E60020737065656420736572766963652E2E25
:1047F6002E2E2E2E2E2E2E2E0A00636F6E6E6563C3
:1048060074696E672E2E2E00474554202F6C696200
:104816002D616E656D6F6D657465722E7068703F83
:104826006D733D0026677573745F6D733D00204898
:104836005454502F312E3100486F73743A2000556E
:104846007365722D4167656E743A204172647569AD
:104856006E6F2D416E656D6F6D657465722F312EAD
:104866003000436F6E6E656374696F6E3A20636CD9
:104876006F7365000A57616974696E6720666F72A7
:10488600206874747020726573706F6E73652E2E57
:104896002E200020446F6E65210A0A00557064615F
:1048A600746520636F6D706C657465642E2E2E2E94
:1048B6002E2E2E2E2E2E0A00636F6E6E6563746981
:1048C6006F6E206661696C65640A0057495A6E65A9
:1048D600740000000000C10CEA0C040D0D0D2B0D38
:1048E6004E0DCA0D520D270D270E610ED70CB20CB8
:1048F600B50CDF0CB70C00000000BA0EF20EB60EB7
:10490600060F4C0FD00E650FD10EE60E9210EE0E6E
:10491600920F2F0F9B0EA20EB20EE80F00000000A2
:10492600C219A81B44195D194F19A01900000000EF
:104936002E1B0D0A006E616E00696E66006F76664C
:0249460000006F
:00000001FF
